{
  "transactions": [
    {
      "hash": "0xc767b5922adade7367e16751a7e4f6f74732bf4f70615ffee8aa97197d6c3991",
      "transactionType": "CREATE",
      "contractName": "ContractB",
      "contractAddress": "0x01fD0e4b4f0C47e59C2E3185E10c4802359174C3",
      "function": null,
      "arguments": null,
      "transaction": {
        "from": "0xd2cA697bb0114ca4F6A2ed28A5896d280A46d61B",
        "gas": "0x35b68",
        "value": "0x0",
        "input": "0x608060405234801561001057600080fd5b50610219806100206000396000f3fe608060405234801561001057600080fd5b50600436106100415760003560e01c80633fa4f2451461004657806340fc6a9614610061578063fe4b84df1461006b575b600080fd5b61004f60005481565b60405190815260200160405180910390f35b61006961007e565b005b6100696100793660046101a3565b610097565b600a60008082825461009091906101bc565b9091555050565b7ff0c57e16840df040f15088dc2f81fe391c3923bec73e23a9662efc9c229c6a008054600160401b810460ff16159067ffffffffffffffff166000811580156100dd5750825b905060008267ffffffffffffffff1660011480156100fa5750303b155b905081158015610108575080155b156101265760405163f92ee8a960e01b815260040160405180910390fd5b845467ffffffffffffffff19166001178555831561015057845460ff60401b1916600160401b1785555b6000869055831561019b57845460ff60401b19168555604051600181527fc7f505b2f371ae2175ee4913f4499e1f2633a7b5936321eed1cdaeb6115181d29060200160405180910390a15b505050505050565b6000602082840312156101b557600080fd5b5035919050565b808201808211156101dd57634e487b7160e01b600052601160045260246000fd5b9291505056fea264697066735822122050e634625a1a64c72a6a72285a09a1f82dc38f0bf475d99d6fee6c4146404e6a64736f6c63430008170033",
        "nonce": "0x1a",
        "chainId": "0xaa36a7"
      },
      "additionalContracts": [],
      "isFixedGasLimit": false
    },
    {
      "hash": "0x381aefb729f0e1c9b9aa106cb8d9170821d6454325326c0d95dad96560272641",
      "transactionType": "CALL",
      "contractName": null,
      "contractAddress": "0x5594E9ee9DdcD8E275812AE4B4ebAEED8572f407",
      "function": "upgradeAndCall(address,address,bytes)",
      "arguments": [
        "0x5aEedfF9cE71187C9E837eAb4E51a626c7628379",
        "0x01fD0e4b4f0C47e59C2E3185E10c4802359174C3",
        "0x40fc6a96"
      ],
      "transaction": {
        "from": "0xd2cA697bb0114ca4F6A2ed28A5896d280A46d61B",
        "to": "0x5594E9ee9DdcD8E275812AE4B4ebAEED8572f407",
        "gas": "0xed8e",
        "value": "0x0",
        "input": "0x9623609d0000000000000000000000005aeedff9ce71187c9e837eab4e51a626c762837900000000000000000000000001fd0e4b4f0c47e59c2e3185e10c4802359174c30000000000000000000000000000000000000000000000000000000000000060000000000000000000000000000000000000000000000000000000000000000440fc6a9600000000000000000000000000000000000000000000000000000000",
        "nonce": "0x1b",
        "chainId": "0xaa36a7"
      },
      "additionalContracts": [],
      "isFixedGasLimit": false
    }
  ],
  "receipts": [
    {
      "status": "0x1",
      "cumulativeGasUsed": "0xaac01d",
      "logs": [],
      "logsBloom": "0x00000000000000000000000000000000000000000000000000000000000000000000000000000000000000000000000000000000000000000000000000000000000000000000000000000000000000000000000000000000000000000000000000000000000000000000000000000000000000000000000000000000000000000000000000000000000000000000000000000000000000000000000000000000000000000000000000000000000000000000000000000000000000000000000000000000000000000000000000000000000000000000000000000000000000000000000000000000000000000000000000000000000000000000000000000000",
      "type": "0x2",
      "transactionHash": "0xc767b5922adade7367e16751a7e4f6f74732bf4f70615ffee8aa97197d6c3991",
      "transactionIndex": "0x1a",
      "blockHash": "0x2460137564967d9a59c8688fcda94519993bd81841df0a607582b3ee7680ab33",
      "blockNumber": "0x67a986",
      "gasUsed": "0x29539",
      "effectiveGasPrice": "0x310b9c7759",
      "from": "0xd2cA697bb0114ca4F6A2ed28A5896d280A46d61B",
      "to": null,
      "contractAddress": "0x01fD0e4b4f0C47e59C2E3185E10c4802359174C3"
    },
    {
      "status": "0x1",
      "cumulativeGasUsed": "0xab6c1a",
      "logs": [
        {
          "address": "0x5aEedfF9cE71187C9E837eAb4E51a626c7628379",
          "topics": [
            "0xbc7cd75a20ee27fd9adebab32041f755214dbc6bffa90cc0225b39da2e5c2d3b",
            "0x00000000000000000000000001fd0e4b4f0c47e59c2e3185e10c4802359174c3"
          ],
          "data": "0x",
          "blockHash": "0x2460137564967d9a59c8688fcda94519993bd81841df0a607582b3ee7680ab33",
          "blockNumber": "0x67a986",
          "transactionHash": "0x381aefb729f0e1c9b9aa106cb8d9170821d6454325326c0d95dad96560272641",
          "transactionIndex": "0x1b",
          "logIndex": "0x3d",
          "removed": false
        }
      ],
      "logsBloom": "0x00000000000000000000000000000000400000000004000000000000000000000000000000000000000200000000000000000000000000000000000000000000000000000000000000000000000002000000000000000000000000000000000000000000000000000000000000000000000000000000000000000000000000000000000000000000000000000000000000000000200000000000000000000000000000000000000000000000000000000000000000000080000000000000000000000024000000000000000000000000000000000000000000000000000000000000000000000000000000000000000000000000000000000000001000000000",
      "type": "0x2",
      "transactionHash": "0x381aefb729f0e1c9b9aa106cb8d9170821d6454325326c0d95dad96560272641",
      "transactionIndex": "0x1b",
      "blockHash": "0x2460137564967d9a59c8688fcda94519993bd81841df0a607582b3ee7680ab33",
      "blockNumber": "0x67a986",
      "gasUsed": "0xabfd",
      "effectiveGasPrice": "0x310b9c7759",
      "from": "0xd2cA697bb0114ca4F6A2ed28A5896d280A46d61B",
      "to": "0x5594E9ee9DdcD8E275812AE4B4ebAEED8572f407",
      "contractAddress": null
    }
  ],
  "libraries": [],
  "pending": [],
  "returns": {},
  "timestamp": 1727778475,
  "chain": 11155111,
  "commit": "72c641c"
}